{
  "_format": "hh-sol-artifact-1",
  "contractName": "NFTCollections",
  "sourceName": "contracts/NFTCollections.sol",
  "abi": [
    {
      "inputs": [
        {
          "internalType": "string",
          "name": "_name",
          "type": "string"
        },
        {
          "internalType": "string",
          "name": "_symbol",
          "type": "string"
        },
        {
          "internalType": "address payable",
          "name": "_depositWallet",
          "type": "address"
        },
        {
          "internalType": "string",
          "name": "_tokenBaseUri",
          "type": "string"
        },
        {
          "internalType": "uint256",
          "name": "_maxSupply",
          "type": "uint256"
        }
      ],
      "stateMutability": "nonpayable",
      "type": "constructor"
    },
    {
      "inputs": [],
      "name": "ApprovalCallerNotOwnerNorApproved",
      "type": "error"
    },
    {
      "inputs": [],
      "name": "ApprovalQueryForNonexistentToken",
      "type": "error"
    },
    {
      "inputs": [],
      "name": "BalanceQueryForZeroAddress",
      "type": "error"
    },
    {
      "inputs": [],
      "name": "MintERC2309QuantityExceedsLimit",
      "type": "error"
    },
    {
      "inputs": [],
      "name": "MintToZeroAddress",
      "type": "error"
    },
    {
      "inputs": [],
      "name": "MintZeroQuantity",
      "type": "error"
    },
    {
      "inputs": [],
      "name": "OwnerQueryForNonexistentToken",
      "type": "error"
    },
    {
      "inputs": [],
      "name": "OwnershipNotInitializedForExtraData",
      "type": "error"
    },
    {
      "inputs": [],
      "name": "TransferCallerNotOwnerNorApproved",
      "type": "error"
    },
    {
      "inputs": [],
      "name": "TransferFromIncorrectOwner",
      "type": "error"
    },
    {
      "inputs": [],
      "name": "TransferToNonERC721ReceiverImplementer",
      "type": "error"
    },
    {
      "inputs": [],
      "name": "TransferToZeroAddress",
      "type": "error"
    },
    {
      "inputs": [],
      "name": "URIQueryForNonexistentToken",
      "type": "error"
    },
    {
      "anonymous": false,
      "inputs": [
        {
          "indexed": true,
          "internalType": "address",
          "name": "owner",
          "type": "address"
        },
        {
          "indexed": true,
          "internalType": "address",
          "name": "approved",
          "type": "address"
        },
        {
          "indexed": true,
          "internalType": "uint256",
          "name": "tokenId",
          "type": "uint256"
        }
      ],
      "name": "Approval",
      "type": "event"
    },
    {
      "anonymous": false,
      "inputs": [
        {
          "indexed": true,
          "internalType": "address",
          "name": "owner",
          "type": "address"
        },
        {
          "indexed": true,
          "internalType": "address",
          "name": "operator",
          "type": "address"
        },
        {
          "indexed": false,
          "internalType": "bool",
          "name": "approved",
          "type": "bool"
        }
      ],
      "name": "ApprovalForAll",
      "type": "event"
    },
    {
      "anonymous": false,
      "inputs": [
        {
          "indexed": true,
          "internalType": "uint256",
          "name": "fromTokenId",
          "type": "uint256"
        },
        {
          "indexed": false,
          "internalType": "uint256",
          "name": "toTokenId",
          "type": "uint256"
        },
        {
          "indexed": true,
          "internalType": "address",
          "name": "from",
          "type": "address"
        },
        {
          "indexed": true,
          "internalType": "address",
          "name": "to",
          "type": "address"
        }
      ],
      "name": "ConsecutiveTransfer",
      "type": "event"
    },
    {
      "anonymous": false,
      "inputs": [
        {
          "indexed": true,
          "internalType": "address",
          "name": "previousOwner",
          "type": "address"
        },
        {
          "indexed": true,
          "internalType": "address",
          "name": "newOwner",
          "type": "address"
        }
      ],
      "name": "OwnershipTransferred",
      "type": "event"
    },
    {
      "anonymous": false,
      "inputs": [
        {
          "indexed": true,
          "internalType": "address",
          "name": "from",
          "type": "address"
        },
        {
          "indexed": true,
          "internalType": "address",
          "name": "to",
          "type": "address"
        },
        {
          "indexed": true,
          "internalType": "uint256",
          "name": "tokenId",
          "type": "uint256"
        }
      ],
      "name": "Transfer",
      "type": "event"
    },
    {
      "inputs": [
        {
          "internalType": "address",
          "name": "to",
          "type": "address"
        },
        {
          "internalType": "uint256",
          "name": "tokenId",
          "type": "uint256"
        }
      ],
      "name": "approve",
      "outputs": [],
      "stateMutability": "payable",
      "type": "function"
    },
    {
      "inputs": [
        {
          "internalType": "address",
          "name": "owner",
          "type": "address"
        }
      ],
      "name": "balanceOf",
      "outputs": [
        {
          "internalType": "uint256",
          "name": "",
          "type": "uint256"
        }
      ],
      "stateMutability": "view",
      "type": "function"
    },
    {
      "inputs": [
        {
          "internalType": "address payable",
          "name": "_newWithdrawalWallet",
          "type": "address"
        }
      ],
      "name": "changeDepositWallet",
      "outputs": [],
      "stateMutability": "nonpayable",
      "type": "function"
    },
    {
      "inputs": [],
      "name": "depositWallet",
      "outputs": [
        {
          "internalType": "address payable",
          "name": "",
          "type": "address"
        }
      ],
      "stateMutability": "view",
      "type": "function"
    },
    {
      "inputs": [
        {
          "internalType": "uint256",
          "name": "tokenId",
          "type": "uint256"
        }
      ],
      "name": "getApproved",
      "outputs": [
        {
          "internalType": "address",
          "name": "",
          "type": "address"
        }
      ],
      "stateMutability": "view",
      "type": "function"
    },
    {
      "inputs": [
        {
          "internalType": "address",
          "name": "owner",
          "type": "address"
        },
        {
          "internalType": "address",
          "name": "operator",
          "type": "address"
        }
      ],
      "name": "isApprovedForAll",
      "outputs": [
        {
          "internalType": "bool",
          "name": "",
          "type": "bool"
        }
      ],
      "stateMutability": "view",
      "type": "function"
    },
    {
      "inputs": [],
      "name": "isMintingEnabled",
      "outputs": [
        {
          "internalType": "bool",
          "name": "",
          "type": "bool"
        }
      ],
      "stateMutability": "view",
      "type": "function"
    },
    {
      "inputs": [],
      "name": "maxSupply",
      "outputs": [
        {
          "internalType": "uint256",
          "name": "",
          "type": "uint256"
        }
      ],
      "stateMutability": "view",
      "type": "function"
    },
    {
      "inputs": [
        {
          "internalType": "uint256",
          "name": "_quantity",
          "type": "uint256"
        }
      ],
      "name": "mint",
      "outputs": [],
      "stateMutability": "payable",
      "type": "function"
    },
    {
      "inputs": [],
      "name": "mintPrice",
      "outputs": [
        {
          "internalType": "uint256",
          "name": "",
          "type": "uint256"
        }
      ],
      "stateMutability": "view",
      "type": "function"
    },
    {
      "inputs": [],
      "name": "name",
      "outputs": [
        {
          "internalType": "string",
          "name": "",
          "type": "string"
        }
      ],
      "stateMutability": "view",
      "type": "function"
    },
    {
      "inputs": [],
      "name": "owner",
      "outputs": [
        {
          "internalType": "address",
          "name": "",
          "type": "address"
        }
      ],
      "stateMutability": "view",
      "type": "function"
    },
    {
      "inputs": [
        {
          "internalType": "uint256",
          "name": "tokenId",
          "type": "uint256"
        }
      ],
      "name": "ownerOf",
      "outputs": [
        {
          "internalType": "address",
          "name": "",
          "type": "address"
        }
      ],
      "stateMutability": "view",
      "type": "function"
    },
    {
      "inputs": [],
      "name": "renounceOwnership",
      "outputs": [],
      "stateMutability": "nonpayable",
      "type": "function"
    },
    {
      "inputs": [
        {
          "internalType": "address",
          "name": "from",
          "type": "address"
        },
        {
          "internalType": "address",
          "name": "to",
          "type": "address"
        },
        {
          "internalType": "uint256",
          "name": "tokenId",
          "type": "uint256"
        }
      ],
      "name": "safeTransferFrom",
      "outputs": [],
      "stateMutability": "payable",
      "type": "function"
    },
    {
      "inputs": [
        {
          "internalType": "address",
          "name": "from",
          "type": "address"
        },
        {
          "internalType": "address",
          "name": "to",
          "type": "address"
        },
        {
          "internalType": "uint256",
          "name": "tokenId",
          "type": "uint256"
        },
        {
          "internalType": "bytes",
          "name": "_data",
          "type": "bytes"
        }
      ],
      "name": "safeTransferFrom",
      "outputs": [],
      "stateMutability": "payable",
      "type": "function"
    },
    {
      "inputs": [
        {
          "internalType": "address",
          "name": "operator",
          "type": "address"
        },
        {
          "internalType": "bool",
          "name": "approved",
          "type": "bool"
        }
      ],
      "name": "setApprovalForAll",
      "outputs": [],
      "stateMutability": "nonpayable",
      "type": "function"
    },
    {
      "inputs": [
        {
          "internalType": "string",
          "name": "_baseTokenUri",
          "type": "string"
        }
      ],
      "name": "setBaseTokenUri",
      "outputs": [],
      "stateMutability": "nonpayable",
      "type": "function"
    },
    {
      "inputs": [],
      "name": "setIsMintingEnabled",
      "outputs": [],
      "stateMutability": "nonpayable",
      "type": "function"
    },
    {
      "inputs": [
        {
          "internalType": "uint256",
          "name": "_price",
          "type": "uint256"
        }
      ],
      "name": "setMintPrice",
      "outputs": [],
      "stateMutability": "nonpayable",
      "type": "function"
    },
    {
      "inputs": [
        {
          "internalType": "uint256",
          "name": "_publicMintPrice",
          "type": "uint256"
        }
      ],
      "name": "setPublicMintingPrice",
      "outputs": [],
      "stateMutability": "nonpayable",
      "type": "function"
    },
    {
      "inputs": [],
      "name": "setPublicSale",
      "outputs": [],
      "stateMutability": "nonpayable",
      "type": "function"
    },
    {
      "inputs": [
        {
          "internalType": "address[]",
          "name": "_addresses",
          "type": "address[]"
        }
      ],
      "name": "setWhiteList",
      "outputs": [],
      "stateMutability": "nonpayable",
      "type": "function"
    },
    {
      "inputs": [
        {
          "internalType": "bytes4",
          "name": "interfaceId",
          "type": "bytes4"
        }
      ],
      "name": "supportsInterface",
      "outputs": [
        {
          "internalType": "bool",
          "name": "",
          "type": "bool"
        }
      ],
      "stateMutability": "view",
      "type": "function"
    },
    {
      "inputs": [],
      "name": "symbol",
      "outputs": [
        {
          "internalType": "string",
          "name": "",
          "type": "string"
        }
      ],
      "stateMutability": "view",
      "type": "function"
    },
    {
      "inputs": [
        {
          "internalType": "uint256",
          "name": "tokenId",
          "type": "uint256"
        }
      ],
      "name": "tokenURI",
      "outputs": [
        {
          "internalType": "string",
          "name": "",
          "type": "string"
        }
      ],
      "stateMutability": "view",
      "type": "function"
    },
    {
      "inputs": [],
      "name": "totalSupply",
      "outputs": [
        {
          "internalType": "uint256",
          "name": "",
          "type": "uint256"
        }
      ],
      "stateMutability": "view",
      "type": "function"
    },
    {
      "inputs": [
        {
          "internalType": "address",
          "name": "from",
          "type": "address"
        },
        {
          "internalType": "address",
          "name": "to",
          "type": "address"
        },
        {
          "internalType": "uint256",
          "name": "tokenId",
          "type": "uint256"
        }
      ],
      "name": "transferFrom",
      "outputs": [],
      "stateMutability": "payable",
      "type": "function"
    },
    {
      "inputs": [
        {
          "internalType": "address",
          "name": "newOwner",
          "type": "address"
        }
      ],
      "name": "transferOwnership",
      "outputs": [],
      "stateMutability": "nonpayable",
      "type": "function"
    },
    {
      "inputs": [
        {
          "internalType": "address",
          "name": "",
          "type": "address"
        }
      ],
      "name": "whiteList",
      "outputs": [
        {
          "internalType": "bool",
          "name": "",
          "type": "bool"
        }
      ],
      "stateMutability": "view",
      "type": "function"
    },
    {
      "inputs": [],
      "name": "withdraw",
      "outputs": [],
      "stateMutability": "nonpayable",
      "type": "function"
    }
  ],
  "bytecode": "0x6080604052662386f26fc100006009553480156200001c57600080fd5b50604051620034a1380380620034a18339818101604052810190620000429190620004f5565b848481600290805190602001906200005c92919062000208565b5080600390805190602001906200007592919062000208565b50620000866200013560201b60201c565b6000819055505050620000ae620000a26200013a60201b60201c565b6200014260201b60201c565b80600a8190555082601060006101000a81548173ffffffffffffffffffffffffffffffffffffffff021916908373ffffffffffffffffffffffffffffffffffffffff16021790555081600f90805190602001906200010e92919062000208565b506000600b60006101000a81548160ff02191690831515021790555050505050506200063f565b600090565b600033905090565b6000600860009054906101000a900473ffffffffffffffffffffffffffffffffffffffff16905081600860006101000a81548173ffffffffffffffffffffffffffffffffffffffff021916908373ffffffffffffffffffffffffffffffffffffffff1602179055508173ffffffffffffffffffffffffffffffffffffffff168173ffffffffffffffffffffffffffffffffffffffff167f8be0079c531659141344cd1fd0a4f28419497f9722a3daafe3b4186f6b6457e060405160405180910390a35050565b828054620002169062000609565b90600052602060002090601f0160209004810192826200023a576000855562000286565b82601f106200025557805160ff191683800117855562000286565b8280016001018555821562000286579182015b828111156200028557825182559160200191906001019062000268565b5b50905062000295919062000299565b5090565b5b80821115620002b45760008160009055506001016200029a565b5090565b6000604051905090565b600080fd5b600080fd5b600080fd5b600080fd5b6000601f19601f8301169050919050565b7f4e487b7100000000000000000000000000000000000000000000000000000000600052604160045260246000fd5b6200032182620002d6565b810181811067ffffffffffffffff82111715620003435762000342620002e7565b5b80604052505050565b600062000358620002b8565b905062000366828262000316565b919050565b600067ffffffffffffffff821115620003895762000388620002e7565b5b6200039482620002d6565b9050602081019050919050565b60005b83811015620003c1578082015181840152602081019050620003a4565b83811115620003d1576000848401525b50505050565b6000620003ee620003e8846200036b565b6200034c565b9050828152602081018484840111156200040d576200040c620002d1565b5b6200041a848285620003a1565b509392505050565b600082601f8301126200043a5762000439620002cc565b5b81516200044c848260208601620003d7565b91505092915050565b600073ffffffffffffffffffffffffffffffffffffffff82169050919050565b6000620004828262000455565b9050919050565b620004948162000475565b8114620004a057600080fd5b50565b600081519050620004b48162000489565b92915050565b6000819050919050565b620004cf81620004ba565b8114620004db57600080fd5b50565b600081519050620004ef81620004c4565b92915050565b600080600080600060a08688031215620005145762000513620002c2565b5b600086015167ffffffffffffffff811115620005355762000534620002c7565b5b620005438882890162000422565b955050602086015167ffffffffffffffff811115620005675762000566620002c7565b5b620005758882890162000422565b94505060406200058888828901620004a3565b935050606086015167ffffffffffffffff811115620005ac57620005ab620002c7565b5b620005ba8882890162000422565b9250506080620005cd88828901620004de565b9150509295509295909350565b7f4e487b7100000000000000000000000000000000000000000000000000000000600052602260045260246000fd5b600060028204905060018216806200062257607f821691505b60208210811415620006395762000638620005da565b5b50919050565b612e52806200064f6000396000f3fe6080604052600436106101d85760003560e01c806370a0823111610102578063a22cb46511610095578063d5abeb0111610064578063d5abeb011461062d578063e985e9c514610658578063f2fde38b14610695578063f4a0a528146106be576101d8565b8063a22cb46514610582578063b88d4fde146105ab578063c87b56dd146105c7578063cc5317df14610604576101d8565b80638da5cb5b116100d15780638da5cb5b146104e757806395652cfa1461051257806395d89b411461053b578063a0712d6814610566576101d8565b806370a0823114610453578063715018a614610490578063775b9c13146104a75780638460f060146104d0576101d8565b806328f94d421161017a57806355c7ba141161014957806355c7ba14146103a957806356f8f78c146103d45780636352211e146103eb5780636817c76c14610428576101d8565b806328f94d4214610310578063372c12b1146103395780633ccfd60b1461037657806342842e0e1461038d576101d8565b8063095ea7b3116101b6578063095ea7b31461028257806309904c001461029e57806318160ddd146102c957806323b872dd146102f4576101d8565b806301ffc9a7146101dd57806306fdde031461021a578063081812fc14610245575b600080fd5b3480156101e957600080fd5b5061020460048036038101906101ff9190611f9a565b6106e7565b6040516102119190611fe2565b60405180910390f35b34801561022657600080fd5b5061022f610779565b60405161023c9190612096565b60405180910390f35b34801561025157600080fd5b5061026c600480360381019061026791906120ee565b61080b565b604051610279919061215c565b60405180910390f35b61029c600480360381019061029791906121a3565b61088a565b005b3480156102aa57600080fd5b506102b36109ce565b6040516102c09190612204565b60405180910390f35b3480156102d557600080fd5b506102de6109f4565b6040516102eb919061222e565b60405180910390f35b61030e60048036038101906103099190612249565b610a0b565b005b34801561031c57600080fd5b50610337600480360381019061033291906122c8565b610d30565b005b34801561034557600080fd5b50610360600480360381019061035b91906122f5565b610d7c565b60405161036d9190611fe2565b60405180910390f35b34801561038257600080fd5b5061038b610d9c565b005b6103a760048036038101906103a29190612249565b610e75565b005b3480156103b557600080fd5b506103be610e95565b6040516103cb9190611fe2565b60405180910390f35b3480156103e057600080fd5b506103e9610ea8565b005b3480156103f757600080fd5b50610412600480360381019061040d91906120ee565b610ee8565b60405161041f919061215c565b60405180910390f35b34801561043457600080fd5b5061043d610efa565b60405161044a919061222e565b60405180910390f35b34801561045f57600080fd5b5061047a600480360381019061047591906122f5565b610f00565b604051610487919061222e565b60405180910390f35b34801561049c57600080fd5b506104a5610fb9565b005b3480156104b357600080fd5b506104ce60048036038101906104c99190612387565b610fcd565b005b3480156104dc57600080fd5b506104e5611072565b005b3480156104f357600080fd5b506104fc611097565b604051610509919061215c565b60405180910390f35b34801561051e57600080fd5b506105396004803603810190610534919061242a565b6110c1565b005b34801561054757600080fd5b506105506110df565b60405161055d9190612096565b60405180910390f35b610580600480360381019061057b91906120ee565b611171565b005b34801561058e57600080fd5b506105a960048036038101906105a491906124a3565b611391565b005b6105c560048036038101906105c09190612613565b61149c565b005b3480156105d357600080fd5b506105ee60048036038101906105e991906120ee565b61150f565b6040516105fb9190612096565b60405180910390f35b34801561061057600080fd5b5061062b600480360381019061062691906120ee565b6115af565b005b34801561063957600080fd5b506106426115c1565b60405161064f919061222e565b60405180910390f35b34801561066457600080fd5b5061067f600480360381019061067a9190612696565b6115c7565b60405161068c9190611fe2565b60405180910390f35b3480156106a157600080fd5b506106bc60048036038101906106b791906122f5565b61165b565b005b3480156106ca57600080fd5b506106e560048036038101906106e091906120ee565b6116df565b005b60006301ffc9a760e01b827bffffffffffffffffffffffffffffffffffffffffffffffffffffffff1916148061074257506380ac58cd60e01b827bffffffffffffffffffffffffffffffffffffffffffffffffffffffff1916145b806107725750635b5e139f60e01b827bffffffffffffffffffffffffffffffffffffffffffffffffffffffff1916145b9050919050565b60606002805461078890612705565b80601f01602080910402602001604051908101604052809291908181526020018280546107b490612705565b80156108015780601f106107d657610100808354040283529160200191610801565b820191906000526020600020905b8154815290600101906020018083116107e457829003601f168201915b5050505050905090565b6000610816826116f1565b61084c576040517fcf4700e400000000000000000000000000000000000000000000000000000000815260040160405180910390fd5b6006600083815260200190815260200160002060000160009054906101000a900473ffffffffffffffffffffffffffffffffffffffff169050919050565b600061089582610ee8565b90508073ffffffffffffffffffffffffffffffffffffffff166108b6611750565b73ffffffffffffffffffffffffffffffffffffffff1614610919576108e2816108dd611750565b6115c7565b610918576040517fcfb3b94200000000000000000000000000000000000000000000000000000000815260040160405180910390fd5b5b826006600084815260200190815260200160002060000160006101000a81548173ffffffffffffffffffffffffffffffffffffffff021916908373ffffffffffffffffffffffffffffffffffffffff160217905550818373ffffffffffffffffffffffffffffffffffffffff168273ffffffffffffffffffffffffffffffffffffffff167f8c5be1e5ebec7d5bd14f71427d1e84f3dd0314c0f7b2291e5b200ac8c7c3b92560405160405180910390a4505050565b601060009054906101000a900473ffffffffffffffffffffffffffffffffffffffff1681565b60006109fe611758565b6001546000540303905090565b6000610a168261175d565b90508373ffffffffffffffffffffffffffffffffffffffff168173ffffffffffffffffffffffffffffffffffffffff1614610a7d576040517fa114810000000000000000000000000000000000000000000000000000000000815260040160405180910390fd5b600080610a898461182b565b91509150610a9f8187610a9a611750565b611852565b610aeb57610ab486610aaf611750565b6115c7565b610aea576040517f59c896be00000000000000000000000000000000000000000000000000000000815260040160405180910390fd5b5b600073ffffffffffffffffffffffffffffffffffffffff168573ffffffffffffffffffffffffffffffffffffffff161415610b52576040517fea553b3400000000000000000000000000000000000000000000000000000000815260040160405180910390fd5b610b5f8686866001611896565b8015610b6a57600082555b600560008773ffffffffffffffffffffffffffffffffffffffff1673ffffffffffffffffffffffffffffffffffffffff168152602001908152602001600020600081546001900391905081905550600560008673ffffffffffffffffffffffffffffffffffffffff1673ffffffffffffffffffffffffffffffffffffffff1681526020019081526020016000206000815460010191905081905550610c3885610c1488888761189c565b7c0200000000000000000000000000000000000000000000000000000000176118c4565b600460008681526020019081526020016000208190555060007c020000000000000000000000000000000000000000000000000000000084161415610cc0576000600185019050600060046000838152602001908152602001600020541415610cbe576000548114610cbd578360046000838152602001908152602001600020819055505b5b505b838573ffffffffffffffffffffffffffffffffffffffff168773ffffffffffffffffffffffffffffffffffffffff167fddf252ad1be2c89b69c2b068fc378daa952ba7f163c4a11628f55a4df523b3ef60405160405180910390a4610d2886868660016118ef565b505050505050565b610d386118f5565b80601060006101000a81548173ffffffffffffffffffffffffffffffffffffffff021916908373ffffffffffffffffffffffffffffffffffffffff16021790555050565b600c6020528060005260406000206000915054906101000a900460ff1681565b610da46118f5565b6000601060009054906101000a900473ffffffffffffffffffffffffffffffffffffffff1673ffffffffffffffffffffffffffffffffffffffff1647604051610dec90612768565b60006040518083038185875af1925050503d8060008114610e29576040519150601f19603f3d011682016040523d82523d6000602084013e610e2e565b606091505b5050905080610e72576040517f08c379a0000000000000000000000000000000000000000000000000000000008152600401610e69906127c9565b60405180910390fd5b50565b610e908383836040518060200160405280600081525061149c565b505050565b600b60009054906101000a900460ff1681565b610eb06118f5565b6000600b60006101000a81548160ff0219169083151502179055506001600d60006101000a81548160ff021916908315150217905550565b6000610ef38261175d565b9050919050565b60095481565b60008073ffffffffffffffffffffffffffffffffffffffff168273ffffffffffffffffffffffffffffffffffffffff161415610f68576040517f8f4eb60400000000000000000000000000000000000000000000000000000000815260040160405180910390fd5b67ffffffffffffffff600560008473ffffffffffffffffffffffffffffffffffffffff1673ffffffffffffffffffffffffffffffffffffffff16815260200190815260200160002054169050919050565b610fc16118f5565b610fcb6000611973565b565b60005b8282905081101561106d576001600c6000858585818110610ff457610ff36127e9565b5b905060200201602081019061100991906122f5565b73ffffffffffffffffffffffffffffffffffffffff1673ffffffffffffffffffffffffffffffffffffffff16815260200190815260200160002060006101000a81548160ff021916908315150217905550808061106590612847565b915050610fd0565b505050565b61107a6118f5565b6001600b60006101000a81548160ff021916908315150217905550565b6000600860009054906101000a900473ffffffffffffffffffffffffffffffffffffffff16905090565b6110c96118f5565b8181600f91906110da929190611e8b565b505050565b6060600380546110ee90612705565b80601f016020809104026020016040519081016040528092919081815260200182805461111a90612705565b80156111675780601f1061113c57610100808354040283529160200191611167565b820191906000526020600020905b81548152906001019060200180831161114a57829003601f168201915b5050505050905090565b60011515600c60003373ffffffffffffffffffffffffffffffffffffffff1673ffffffffffffffffffffffffffffffffffffffff16815260200190815260200160002060009054906101000a900460ff161515146111ce57600080fd5b60011515600d60009054906101000a900460ff161515141561124c576000600c60003373ffffffffffffffffffffffffffffffffffffffff1673ffffffffffffffffffffffffffffffffffffffff16815260200190815260200160002060006101000a81548160ff021916908315150217905550600e546009819055505b6000811161128f576040517f08c379a0000000000000000000000000000000000000000000000000000000008152600401611286906128dc565b60405180910390fd5b600b60009054906101000a900460ff166112de576040517f08c379a00000000000000000000000000000000000000000000000000000000081526004016112d590612948565b60405180910390fd5b600954816112ec9190612968565b341461132d576040517f08c379a000000000000000000000000000000000000000000000000000000000815260040161132490612a0e565b60405180910390fd5b600a54816113396109f4565b6113439190612a2e565b1115611384576040517f08c379a000000000000000000000000000000000000000000000000000000000815260040161137b90612ad0565b60405180910390fd5b61138e3382611a39565b50565b806007600061139e611750565b73ffffffffffffffffffffffffffffffffffffffff1673ffffffffffffffffffffffffffffffffffffffff16815260200190815260200160002060008473ffffffffffffffffffffffffffffffffffffffff1673ffffffffffffffffffffffffffffffffffffffff16815260200190815260200160002060006101000a81548160ff0219169083151502179055508173ffffffffffffffffffffffffffffffffffffffff1661144b611750565b73ffffffffffffffffffffffffffffffffffffffff167f17307eab39ab6107e8899845ad3d59bd9653f200f220920489ca2b5937696c31836040516114909190611fe2565b60405180910390a35050565b6114a7848484610a0b565b60008373ffffffffffffffffffffffffffffffffffffffff163b14611509576114d284848484611a57565b611508576040517fd1a57ed600000000000000000000000000000000000000000000000000000000815260040160405180910390fd5b5b50505050565b606061151a826116f1565b611550576040517fa14c4b5000000000000000000000000000000000000000000000000000000000815260040160405180910390fd5b6000600f805461155f90612705565b9050141561157c57604051806020016040528060008152506115a8565b600f61158783611bb7565b604051602001611598929190612c0c565b6040516020818303038152906040525b9050919050565b6115b76118f5565b80600e8190555050565b600a5481565b6000600760008473ffffffffffffffffffffffffffffffffffffffff1673ffffffffffffffffffffffffffffffffffffffff16815260200190815260200160002060008373ffffffffffffffffffffffffffffffffffffffff1673ffffffffffffffffffffffffffffffffffffffff16815260200190815260200160002060009054906101000a900460ff16905092915050565b6116636118f5565b600073ffffffffffffffffffffffffffffffffffffffff168173ffffffffffffffffffffffffffffffffffffffff1614156116d3576040517f08c379a00000000000000000000000000000000000000000000000000000000081526004016116ca90612cad565b60405180910390fd5b6116dc81611973565b50565b6116e76118f5565b8060098190555050565b6000816116fc611758565b1115801561170b575060005482105b8015611749575060007c0100000000000000000000000000000000000000000000000000000000600460008581526020019081526020016000205416145b9050919050565b600033905090565b600090565b6000808290508061176c611758565b116117f4576000548110156117f35760006004600083815260200190815260200160002054905060007c0100000000000000000000000000000000000000000000000000000000821614156117f1575b60008114156117e75760046000836001900393508381526020019081526020016000205490506117bc565b8092505050611826565b505b5b6040517fdf2d9b4200000000000000000000000000000000000000000000000000000000815260040160405180910390fd5b919050565b60008060006006600085815260200190815260200160002090508092508254915050915091565b600073ffffffffffffffffffffffffffffffffffffffff8316925073ffffffffffffffffffffffffffffffffffffffff821691508382148383141790509392505050565b50505050565b60008060e883901c905060e86118b3868684611c10565b62ffffff16901b9150509392505050565b600073ffffffffffffffffffffffffffffffffffffffff83169250814260a01b178317905092915050565b50505050565b6118fd611c19565b73ffffffffffffffffffffffffffffffffffffffff1661191b611097565b73ffffffffffffffffffffffffffffffffffffffff1614611971576040517f08c379a000000000000000000000000000000000000000000000000000000000815260040161196890612d19565b60405180910390fd5b565b6000600860009054906101000a900473ffffffffffffffffffffffffffffffffffffffff16905081600860006101000a81548173ffffffffffffffffffffffffffffffffffffffff021916908373ffffffffffffffffffffffffffffffffffffffff1602179055508173ffffffffffffffffffffffffffffffffffffffff168173ffffffffffffffffffffffffffffffffffffffff167f8be0079c531659141344cd1fd0a4f28419497f9722a3daafe3b4186f6b6457e060405160405180910390a35050565b611a53828260405180602001604052806000815250611c21565b5050565b60008373ffffffffffffffffffffffffffffffffffffffff1663150b7a02611a7d611750565b8786866040518563ffffffff1660e01b8152600401611a9f9493929190612d8e565b602060405180830381600087803b158015611ab957600080fd5b505af1925050508015611aea57506040513d601f19601f82011682018060405250810190611ae79190612def565b60015b611b64573d8060008114611b1a576040519150601f19603f3d011682016040523d82523d6000602084013e611b1f565b606091505b50600081511415611b5c576040517fd1a57ed600000000000000000000000000000000000000000000000000000000815260040160405180910390fd5b805181602001fd5b63150b7a0260e01b7bffffffffffffffffffffffffffffffffffffffffffffffffffffffff1916817bffffffffffffffffffffffffffffffffffffffffffffffffffffffff191614915050949350505050565b606060a060405101806040526020810391506000825281835b600115611bfb57600184039350600a81066030018453600a8104905080611bf657611bfb565b611bd0565b50828103602084039350808452505050919050565b60009392505050565b600033905090565b611c2b8383611cbe565b60008373ffffffffffffffffffffffffffffffffffffffff163b14611cb957600080549050600083820390505b611c6b6000868380600101945086611a57565b611ca1576040517fd1a57ed600000000000000000000000000000000000000000000000000000000815260040160405180910390fd5b818110611c58578160005414611cb657600080fd5b50505b505050565b6000805490506000821415611cff576040517fb562e8dd00000000000000000000000000000000000000000000000000000000815260040160405180910390fd5b611d0c6000848385611896565b600160406001901b178202600560008573ffffffffffffffffffffffffffffffffffffffff1673ffffffffffffffffffffffffffffffffffffffff16815260200190815260200160002060008282540192505081905550611d8383611d74600086600061189c565b611d7d85611e7b565b176118c4565b6004600083815260200190815260200160002081905550600080838301905073ffffffffffffffffffffffffffffffffffffffff85169150828260007fddf252ad1be2c89b69c2b068fc378daa952ba7f163c4a11628f55a4df523b3ef600080a4600183015b818114611e2457808360007fddf252ad1be2c89b69c2b068fc378daa952ba7f163c4a11628f55a4df523b3ef600080a4600181019050611de9565b506000821415611e60576040517f2e07630000000000000000000000000000000000000000000000000000000000815260040160405180910390fd5b806000819055505050611e7660008483856118ef565b505050565b60006001821460e11b9050919050565b828054611e9790612705565b90600052602060002090601f016020900481019282611eb95760008555611f00565b82601f10611ed257803560ff1916838001178555611f00565b82800160010185558215611f00579182015b82811115611eff578235825591602001919060010190611ee4565b5b509050611f0d9190611f11565b5090565b5b80821115611f2a576000816000905550600101611f12565b5090565b6000604051905090565b600080fd5b600080fd5b60007fffffffff0000000000000000000000000000000000000000000000000000000082169050919050565b611f7781611f42565b8114611f8257600080fd5b50565b600081359050611f9481611f6e565b92915050565b600060208284031215611fb057611faf611f38565b5b6000611fbe84828501611f85565b91505092915050565b60008115159050919050565b611fdc81611fc7565b82525050565b6000602082019050611ff76000830184611fd3565b92915050565b600081519050919050565b600082825260208201905092915050565b60005b8381101561203757808201518184015260208101905061201c565b83811115612046576000848401525b50505050565b6000601f19601f8301169050919050565b600061206882611ffd565b6120728185612008565b9350612082818560208601612019565b61208b8161204c565b840191505092915050565b600060208201905081810360008301526120b0818461205d565b905092915050565b6000819050919050565b6120cb816120b8565b81146120d657600080fd5b50565b6000813590506120e8816120c2565b92915050565b60006020828403121561210457612103611f38565b5b6000612112848285016120d9565b91505092915050565b600073ffffffffffffffffffffffffffffffffffffffff82169050919050565b60006121468261211b565b9050919050565b6121568161213b565b82525050565b6000602082019050612171600083018461214d565b92915050565b6121808161213b565b811461218b57600080fd5b50565b60008135905061219d81612177565b92915050565b600080604083850312156121ba576121b9611f38565b5b60006121c88582860161218e565b92505060206121d9858286016120d9565b9150509250929050565b60006121ee8261211b565b9050919050565b6121fe816121e3565b82525050565b600060208201905061221960008301846121f5565b92915050565b612228816120b8565b82525050565b6000602082019050612243600083018461221f565b92915050565b60008060006060848603121561226257612261611f38565b5b60006122708682870161218e565b93505060206122818682870161218e565b9250506040612292868287016120d9565b9150509250925092565b6122a5816121e3565b81146122b057600080fd5b50565b6000813590506122c28161229c565b92915050565b6000602082840312156122de576122dd611f38565b5b60006122ec848285016122b3565b91505092915050565b60006020828403121561230b5761230a611f38565b5b60006123198482850161218e565b91505092915050565b600080fd5b600080fd5b600080fd5b60008083601f84011261234757612346612322565b5b8235905067ffffffffffffffff81111561236457612363612327565b5b6020830191508360208202830111156123805761237f61232c565b5b9250929050565b6000806020838503121561239e5761239d611f38565b5b600083013567ffffffffffffffff8111156123bc576123bb611f3d565b5b6123c885828601612331565b92509250509250929050565b60008083601f8401126123ea576123e9612322565b5b8235905067ffffffffffffffff81111561240757612406612327565b5b6020830191508360018202830111156124235761242261232c565b5b9250929050565b6000806020838503121561244157612440611f38565b5b600083013567ffffffffffffffff81111561245f5761245e611f3d565b5b61246b858286016123d4565b92509250509250929050565b61248081611fc7565b811461248b57600080fd5b50565b60008135905061249d81612477565b92915050565b600080604083850312156124ba576124b9611f38565b5b60006124c88582860161218e565b92505060206124d98582860161248e565b9150509250929050565b600080fd5b7f4e487b7100000000000000000000000000000000000000000000000000000000600052604160045260246000fd5b6125208261204c565b810181811067ffffffffffffffff8211171561253f5761253e6124e8565b5b80604052505050565b6000612552611f2e565b905061255e8282612517565b919050565b600067ffffffffffffffff82111561257e5761257d6124e8565b5b6125878261204c565b9050602081019050919050565b82818337600083830152505050565b60006125b66125b184612563565b612548565b9050828152602081018484840111156125d2576125d16124e3565b5b6125dd848285612594565b509392505050565b600082601f8301126125fa576125f9612322565b5b813561260a8482602086016125a3565b91505092915050565b6000806000806080858703121561262d5761262c611f38565b5b600061263b8782880161218e565b945050602061264c8782880161218e565b935050604061265d878288016120d9565b925050606085013567ffffffffffffffff81111561267e5761267d611f3d565b5b61268a878288016125e5565b91505092959194509250565b600080604083850312156126ad576126ac611f38565b5b60006126bb8582860161218e565b92505060206126cc8582860161218e565b9150509250929050565b7f4e487b7100000000000000000000000000000000000000000000000000000000600052602260045260246000fd5b6000600282049050600182168061271d57607f821691505b60208210811415612731576127306126d6565b5b50919050565b600081905092915050565b50565b6000612752600083612737565b915061275d82612742565b600082019050919050565b600061277382612745565b9150819050919050565b7f5769746864726177616c206661696c6564000000000000000000000000000000600082015250565b60006127b3601183612008565b91506127be8261277d565b602082019050919050565b600060208201905081810360008301526127e2816127a6565b9050919050565b7f4e487b7100000000000000000000000000000000000000000000000000000000600052603260045260246000fd5b7f4e487b7100000000000000000000000000000000000000000000000000000000600052601160045260246000fd5b6000612852826120b8565b91507fffffffffffffffffffffffffffffffffffffffffffffffffffffffffffffffff82141561288557612884612818565b5b600182019050919050565b7f596f75206e65656420746f206d696e74206174206c656173742031204e465400600082015250565b60006128c6601f83612008565b91506128d182612890565b602082019050919050565b600060208201905081810360008301526128f5816128b9565b9050919050565b7f4d696e74696e67206973206e6f74207374617274656420796574000000000000600082015250565b6000612932601a83612008565b915061293d826128fc565b602082019050919050565b6000602082019050818103600083015261296181612925565b9050919050565b6000612973826120b8565b915061297e836120b8565b9250817fffffffffffffffffffffffffffffffffffffffffffffffffffffffffffffffff04831182151516156129b7576129b6612818565b5b828202905092915050565b7f496e73756666696369656e742042616c616e6365000000000000000000000000600082015250565b60006129f8601483612008565b9150612a03826129c2565b602082019050919050565b60006020820190508181036000830152612a27816129eb565b9050919050565b6000612a39826120b8565b9150612a44836120b8565b9250827fffffffffffffffffffffffffffffffffffffffffffffffffffffffffffffffff03821115612a7957612a78612818565b5b828201905092915050565b7f536f6c64204f7574000000000000000000000000000000000000000000000000600082015250565b6000612aba600883612008565b9150612ac582612a84565b602082019050919050565b60006020820190508181036000830152612ae981612aad565b9050919050565b600081905092915050565b60008190508160005260206000209050919050565b60008154612b1d81612705565b612b278186612af0565b94506001821660008114612b425760018114612b5357612b86565b60ff19831686528186019350612b86565b612b5c85612afb565b60005b83811015612b7e57815481890152600182019150602081019050612b5f565b838801955050505b50505092915050565b6000612b9a82611ffd565b612ba48185612af0565b9350612bb4818560208601612019565b80840191505092915050565b7f2e6a736f6e000000000000000000000000000000000000000000000000000000600082015250565b6000612bf6600583612af0565b9150612c0182612bc0565b600582019050919050565b6000612c188285612b10565b9150612c248284612b8f565b9150612c2f82612be9565b91508190509392505050565b7f4f776e61626c653a206e6577206f776e657220697320746865207a65726f206160008201527f6464726573730000000000000000000000000000000000000000000000000000602082015250565b6000612c97602683612008565b9150612ca282612c3b565b604082019050919050565b60006020820190508181036000830152612cc681612c8a565b9050919050565b7f4f776e61626c653a2063616c6c6572206973206e6f7420746865206f776e6572600082015250565b6000612d03602083612008565b9150612d0e82612ccd565b602082019050919050565b60006020820190508181036000830152612d3281612cf6565b9050919050565b600081519050919050565b600082825260208201905092915050565b6000612d6082612d39565b612d6a8185612d44565b9350612d7a818560208601612019565b612d838161204c565b840191505092915050565b6000608082019050612da3600083018761214d565b612db0602083018661214d565b612dbd604083018561221f565b8181036060830152612dcf8184612d55565b905095945050505050565b600081519050612de981611f6e565b92915050565b600060208284031215612e0557612e04611f38565b5b6000612e1384828501612dda565b9150509291505056fea2646970667358221220b49370e2a9f94a8114cbacc33c18060b15594e2524b41af17cbfa7185261495364736f6c63430008090033",
  "linkReferences": {},
  "deployedLinkReferences": {}
}